:020000041000EA
:10000000002008205D0100101B0100101D010010E0
:100010001101001011010010110100101101001058
:100020001901001019010010190100101F01001022
:10003000110100101901001021010010230100100E
:100040001101001011010010110100101101001028
:100050001101001011010010110100101101001018
:100060001101001011010010110100101101001008
:1000700011010010110100101101001011010010F8
:1000800011010010110100101101001011010010E8
:1000900011010010110100101101001011010010D8
:1000A00011010010110100101101001011010010C8
:1000B00011010010110100101101001011010010B8
:1000C00011010010110100101101001011010010A8
:1000D0001101001011010010110100101101001098
:1000E0001101001011010010110100101101001088
:1000F0001101001011010010110100101101001078
:100100001101001011010010110100101101001067
:10011000EFF30580103800BE00BE00BE00BE00BE7A
:1001200000BE00BEF2EB88716445021084450210E7
:10013000A001001090A31AE7D3DEFFFF42012110B7
:10014000FF010000786F0200793512AB4FF000001C
:100150001E49086006C881F3088810474FF05040D8
:10016000006810B14FF00000F2E70DA40ECC00299A
:1001700002D000F012F8F9E71549164A002000E015
:1001800001C19142FCD11449884714498847144958
:10019000884700BEFDE701C901C29A42FBD3704700
:1001A00084450210100100203C2C0020B070021089
:1001B0000000082000000820B07002100010082085
:1001C00000100820000000007047000008ED00E06B
:1001D0003C2C0020547702208D680010CD020010C6
:1001E00051680010F8B500BF064B0749C91A8910BD
:1001F00048BF0131491003D0044B0BB101481847E7
:10020000704700BF3C2C00203C2C00200000000068
:1002100008B5054B1BB105490548AFF30080BDE8A3
:100220000840FFF7E1BF00BF00000000D4A5002098
:10023000F0B201100D4C08B50D4806F08BFC237888
:100240002BB90A2004F094F92378002BF9D009483F
:1002500006F080FC084C102004F08AF9074801F0F1
:10026000DBFF0748216801F0D9FFF4E74C77022053
:10027000F0B2011018B30110A8A1002030450020F1
:100280007051002030B585B0044603AB0A4802AA7D
:1002900001A904F001FB18B954B9204605B030BDDE
:1002A0000546DDE90212019804F0C0FA2C46F4E795
:1002B0000149024803F0FCF960D803003CB3011087
:1002C000704700BF704700BF002070472DE9F04F16
:1002D000002087B0FFF7D6FF002800F06F8206F0FD
:1002E00027FCCB4806F036FC04242146C94806F01A
:1002F000A9FC4FF47A7004F03BF9013CF5D1C648F3
:1003000006F028FCC54806F025FCC34806F022FC90
:10031000052004F085FA0146C14BC248A3FB013118
:10032000890C06F08FFCC04806F014FC4FF08043A7
:100330005B6813F0010F0CBF2F25132528461AF018
:100340005FFF20460AF068FF2946B84806F07AFCAD
:100350004FF08855AB21CD22EF2329706A70AB7026
:100360002978B3486A78AB7806F06CFC2B78AB2B15
:1003700003D16B78CD2B00F03082AE4806F0EAFB5B
:10038000AD4806F0E7FB4FF4963004F083FFAB4D29
:1003900001462860002800F025824FF49632A848D4
:1003A00006F050FC2B684FF496321846002115F0E9
:1003B000EDFB09F003FAF0214FF4A07009F010FAF8
:1003C000A04806F0C7FB01200AF020FF2F6809F0C3
:1003D000FBF9064609F0FEF93246034639469A48CB
:1003E00006F030FC994EE0B256F8041F01340AF0D2
:1003F0000FFF102CF7D1E302220402F46002A101E6
:1004000003F460431343C9B2E0B2194301340AF064
:10041000FFFEB4F5807FEED10AF0BEFE8C4806F0F8
:1004200099FB8C4B8C48D3E93E41D3E93C23CDE981
:10043000004106F007FC00224CF201062B688748B9
:100440001A6006F087FB0AF071FF854806F082FB10
:10045000844802F08FF9844806F07CFB834A814F80
:1004600002F58045541CD7F8A83BB7F8981B3344D5
:100470001B1B5B1A134412F8010FD7F8A41BAA42E6
:10048000C854F0D14FF480457948C0E9044501F0E3
:1004900045FF294600254FF44042764806F0D2FB3E
:1004A00001234FF6FC71744805AA8DF8145001F031
:1004B00093FC9DF8146001234FF6FD716E4805AA68
:1004C0008DF8145001F088FC32469DF814106B48EA
:1004D00006F0B8FBD7F8A42BB7F8981B684806F0CD
:1004E000B1FB684B684893F8FD2F93F8FC1F06F0AA
:1004F000A9FB664806F02EFB94F8033394F8012319
:1005000094F800130093624894F8023306F09AFBC3
:1005100094F8FF3394F8FD2394F8FC1300935D489E
:1005200094F8FE3306F08EFB05AA01234CF2FC3151
:1005300051488DF8145001F04FFC9DF814105648A6
:1005400006F080FBD7F8A43B544893F8FC1306F060
:1005500079FB534806F0FEFA524801F00DFF0346BE
:10056000002800F02F814FF480514F48C7F8443CD9
:1005700006F068FB4D4806F0EDFA0121394802F01B
:1005800059F8396C4A4806F05DFB4A4806F0E2FA31
:1005900000200AF03FFE484806F0DCFA474806F023
:1005A000D9FA47492F4802F0F1FF798A454806F009
:1005B00049FB4FF480612B4802F0D8FF40F2014123
:1005C0000446284802F0D2FF40F202410546254881
:1005D00002F0CCFF40F203410646224802F0C6FF7B
:1005E000214633462A460090374806F02BFB01226D
:1005F0000025364B36481A7006F0ACFA354808F03C
:1006000027FE354806F0A6FA344806F0A3FA67E05C
:100610008CB7011070B3011090B30110B4B3011086
:1006200083DE1B43D8B30110F0B3011008B40110EE
:1006300028B401105CB401107CB40110A8A1002002
:10064000D0B40110F8B4011010B5011038D3011066
:1006500030B501100030002054B501107CB50110F8
:100660009CB5011030450020C0B501109FDC011081
:1006700084220020DCB50110C8500020FCB5011018
:1006800028B60110A00C021048B601107CB601106B
:100690009CB60110CCB60110FCB6011018B70110C1
:1006A00034B7011050B701105CB70110BCB701108E
:1006B000D4B70110F0B7011008B8011018B8011034
:1006C00040420F0044B8011064B801104C7702207A
:1006D00098B8011035020010C0B80110D0B8011050
:1006E000424E798A424806F0ADFA424806F032FAA4
:1006F000D6F828800AF068FE02E0059B002B44D162
:100700000DF1130105A80AF067FE04460028F4D194
:10071000394844F2AA2102F039FF44F21A13B06AB0
:10072000A0EB08029A4241D9344B013505FB03F393
:10073000334AD6F82880B2EBB30FDBD324212E48FE
:1007400002F014FF252183462B4802F00FFF4FF4DF
:1007500080610446284802F009FF40F201418146C9
:10076000254802F003FF40F202418246224802F08F
:10077000FDFE0246CDE902A25B467A8A2946CDE912
:100780000049204806F05EFAB4E79DF813201E48A1
:10079000A2F120035E2B94BF11463F2106F052FACE
:1007A00015489DF8131001F025FFA9E7C0F5824018
:1007B0001B302146404403F0C3FEB5E70120FFF79C
:1007C00061FD8CE5114B124A4FF4805111481A61BA
:1007D000C7F8443C06F036FACCE6AB78EF2B7FF452
:1007E000CCADCDE50C4806F0B5F9FEE700000B40B6
:1007F000F0B8011004B9011030450020EFEEEEEE24
:10080000444444043CB9011028B901109C22002042
:10081000A01C021090B70110A4B401104FF080602A
:10082000704700BF2DE9F84F0C4667014FF00008F4
:100830000546DFF8009BC1F307464FEA146300F159
:10084000F8811A07698900F1D684DF066A7B00F116
:10085000BC82002A40F03182C4F3076323F0030313
:1008600043F00203AA7B63F31F6461F30F04531C7C
:1008700066F317442146AA6AAB732846904704469C
:10088000AE7B2B6A686A9B196989C4F30746AA691B
:1008900040F1000009EBC607C5E9083001F1010C81
:1008A0007B79A88A1FFA8CFC46EA02221FFA84FA96
:1008B0007F6885F80E80A5F80AC02E7368F3596426
:1008C00003F00F03AA6120B192B2101AB0FA80F0BF
:1008D000400960F35D74A20000F1E681013B0C2B3E
:1008E00044D8DFE813F077025F021F040904F50320
:1008F000B30371033E030403CB028A020D005F02BF
:10090000012324F080746CF30F0402316981AB730E
:100910002146AB6A284698470446AB7BC4F307429E
:1009200024F0807462F30F0401332146AB73AA8074
:10093000AB6A284698470446AB7BAA88013301324C
:10094000D2B2AB73C4F3074124F0807462F30F0496
:10095000E98028462146AB6A98470446EB88C0F3F5
:10096000074643EA0623EB801FFA80FAFB02C7F32F
:10097000074B13D5EB88AA7B24F0807463F30F0434
:1009800066F31744013221462846AB6AAA7398479A
:100990000446C0F307461FFA80FAAE802A7BFF2A7E
:1009A00001F2D581DFE812F047079604E003230146
:1009B000FA05960462055E04E207960461072301C6
:1009C000FA05960462052E04F804960496042301A1
:1009D0000906960462055E042B059604E1082301CE
:1009E0000906960462052E047E07DE04E003230157
:1009F000CB05DE0448055E043906DE045B062301F0
:100A0000CB05DE0448052E04F804DE04DE042301D1
:100A1000CB05DE0448055E04E505DE04C6062301B9
:100A2000CB05DE0448052E047C08E604E003230120
:100A3000E003E604B3055E047408E60485062301BA
:100A4000F605E604B3052E04F804E604E6042301E3
:100A5000E003E604B3055E042B05E6046908230100
:100A6000CD03E604B3052E04F6089B04E00323013E
:100A7000BD059B04C1055E04EC079B040E08230121
:100A8000F6059B04C1052E04F8049B049B04230176
:100A9000BD059B04C1055E04E5059B0428082301F0
:100AA000F6059B04C1052E0447081205E003230147
:100AB000E1051205F2055E04000111061D06230181
:100AC000E1051205F2052E04F804120512052301B2
:100AD000E1051205F2055E04300612053206230117
:100AE000BD051205BD052E042805E30418052301E4
:100AF0002805E30418055E047108E3047807230160
:100B00002805E30418052E04F804E304E304230194
:100B10002805E30418055E042B05E3047B07230185
:100B20002805E30418052E04EE05C804E00323019C
:100B3000EE05C8047A055E040A07C804DB06230133
:100B4000EE05C8047A052E04F804C804C80423017D
:100B5000E003C8047A055E042B05C804ED06E00333
:100B6000CD03C8047A052E04F0056B04E0032301CD
:100B7000F0056B04A1055E04A9066B04BE06230103
:100B8000F0056B04A1052E04F8046B046B0423012B
:100B9000E0036B04A1055E04E5056B041F07230158
:100BA000CD036B04A1052E046B8924F0807463F3DC
:100BB0000F04AB7B66F3174401332146AB73284621
:100BC000AB6A98470446AB78013BDBB2AB70B3FA33
:100BD00083F12A7A03F08003490902F07D0243EA97
:100BE000410313432B721FFA84FAC4F307461BF028
:100BF000200F13D0E988AB7B2A7944F0807461F32D
:100C00000F0462F31744013321462846AA6AAB73E6
:100C1000904704461FFA80FAC0F307462B69002B61
:100C200000F0E282013B67012B614FEA14637FF51C
:100C300008AE6FF00302C4F3076323F0050363F308
:100C40001F64AB7B62F30F0466F317440133214644
:100C5000AB732846AB6A984704466FF00202AB7B41
:100C6000C4F3074124F0807462F30F040133AB73C3
:100C7000E980AB6A214628469847FF230446202294
:100C8000E988C0F3074641EA0621EB70030E200114
:100C90002A72E98069810CD4DB066A7B7FF5D9ADC5
:100CA0005AB902236B730DE000232046AB61BDE807
:100CB000F88F6A7B002A00F0C387A2F10302B2FA20
:100CC00082F25209287AC4F3076323F0090362F31E
:100CD000041043F00103AA7B63F31F64EB78013235
:100CE000AA7343F4807262F30F04A980090A61F3C6
:100CF0001744013B21462872EB702846AB6A98479F
:100D0000AA7BEB78013243F4807140F08074AA73BF
:100D10002A7961F30F0462F31744013B2146EB701B
:100D20002846AB6A9847AA7BEB780132297A40F0D3
:100D30008074AA7343F4807262F30F0461F3174462
:100D4000013B2146EB702846AB6A98472B7A6A7BB9
:100D500043F004032B72AB7B032A03F10103044627
:100D6000AE6ADBB200F01682022A40F01782AB7343
:100D70006FF0050320F0807463F30F0421462846CA
:100D8000B04704466FF00402AB7BC4F3074124F084
:100D90008074013362F30F04AB73E9802846214667
:100DA000AB6A14E2012324F080746CF30F04023167
:100DB0006981AB7321462846AB6A9847C0F3074662
:100DC0000446EE801FFA80FAD0E52B7A58073FF5EB
:100DD00040AD65E7012324F080746CF30F04023109
:100DE0006981AB7321462846AB6A9847C0F3074632
:100DF0000446AE801FFA80FAB8E5012324F080741F
:100E00006CF30F0402316981AB732146AB6A28464B
:100E100098470446AB7B6A89C4F30741013324F049
:100E2000807462F30F04AB73531C6B81A980AB6AAF
:100E30002146284698470446AA88C4F3074142EA57
:100E4000012224F0807462F30F0428462146AB7B14
:100E5000AA800133AB73AB6A98470446C4F30741D9
:100E600024F08074E9802146AB7BAA8801330132EB
:100E7000AB732846AB6A62F30F016DE5012324F0E2
:100E800080746CF30F0402316981AB732146AB6A45
:100E9000284698470446AB7BC4F3074224F080748D
:100EA00062F30F0401332146AB73AA80AB6A284674
:100EB00098470446AA88AB7B0132D2B2C4F30741FB
:100EC00024F0807462F30F040133AB73E980AB6AE2
:100ED000214628469847EA88AB78C0F3074642EA9D
:100EE000062213440446EB801FFA80FA3EE50123F4
:100EF00024F080746CF30F0402316981AB732146D6
:100F0000AB6A284698470446AB7B6A89C4F307411D
:100F1000013324F0807462F30F04AB73531C6B81B4
:100F2000A980AB6A2146284698470446A988C0F3A1
:100F300007406B7841EA00210B449BB2AA7B03F483
:100F40007F41B1EB002F1CBF0132D2B224F080747C
:100F500063F30F040132AB8021462846AB6AAA73C3
:100F60007AE7012324F080746CF30F040231698165
:100F7000AB732146AB6A2846984704466978C4F3A8
:100F80000742AB7B0A44AA8024F08074D2B262F399
:100F90000F0401332146AB732846AB6A98470446D9
:100FA000AB88AA7B01339BB2C4F30741AB8024F02A
:100FB0008074DBB2013263F30F04AA73E980284620
:100FC0002146AA6A9047C8E4012324F080746CF398
:100FD0000F0402316981AB732146AB6A28469847FA
:100FE0000446AB7B6A89C4F30741013324F0807463
:100FF00062F30F04AB73531C6B81E980AB6A21462B
:1010000028469847EA88C0F30746AB7842EA0622AA
:1010100013449BB2EB8003F47F43B3EB062F0446EB
:101020001FFA80FA3FF4A2ACAB7B20F0807401334E
:10103000AB736B8963F30F0421462846AB6A98476C
:1010400004461FFA80FAC0F307468FE4012324F018
:1010500080746CF30F0402316981AB732146AB6A73
:10106000284698470446AB7B6A89C4F3074101339D
:1010700024F0807462F30F04AB73531C6B81E9801E
:10108000AB6A2146284698470446EA88287BC4F381
:10109000074642EA0622FE286B78EA801FFA84FAA5
:1010A0004FEA062100F0AE8513449BB2EB8003F4B7
:1010B0007F438B423FF45AAC6B8924F0807463F316
:1010C0000F04AB7B66F3174401332146AB73B4E7DF
:1010D000012324F080746CF30F0402316981AB7337
:1010E0002146AB6A28469847AB7B6A890133AB73CC
:1010F000531C04466B8125E4012324F080746CF3B7
:101100000F0402316981AB732146AB6A28469847C8
:101110000446AB78C4F307463344DBB2EB801FFAD6
:1011200084FA23E4012324F080746CF30F04023169
:101130006981AB732146AB6A284698476B780446B1
:10114000E8E76B8924F0807463F30F0401336B814B
:10115000AB7B66F3174401332146AB732846AB6A79
:1011600098470446C0F307466B8924F0807463F304
:101170000F04013366F317446B81AB7B21460133C7
:10118000AB732846AB6A984704461FFA80FAC0F34F
:1011900007462CE52A7A22F008022A72AB736FF018
:1011A000010324F0807463F30F0421462846B047FE
:1011B0000446C4F3074224F080746FEA14412846C1
:1011C0006FEA0141AB7BEA800133AB73AB6A9847AE
:1011D0000023E988C0F3074641EA06210446E98076
:1011E00069816B73FFF738BB6AF30F0466F317442A
:1011F0002046BDE8F88F2A7A53077FF55AAD6A7BFF
:10120000FFF727BB6B8924F0807463F30F0401336D
:101210006B81AB7B66F3174401332146AB732846E1
:10122000AB6A9847AB88C7F30242134103F001034E
:10123000C7F3C047C0F30742BB42044616461FFA35
:1012400080FA7FF4D4AC698941FA82F39BB25940A9
:10125000FF29AA7BEB8040F2B6800232D2B2AA7399
:101260006B81C4E40121AA88C7F30240C7F3C043DD
:101270008140834022EA01021343AB80B7E4287A1D
:10128000AB8801072A7800F0010700F11A85DB43DB
:10129000D9B27B1813445FFA83FCA98051405A40AD
:1012A00022EA0102FF2BBCFA8CFCC2F3C01794BFE8
:1012B000002201224FEA5C1CC3F3C0112B7042EAEA
:1012C0004C0343EA871300F03C0043EAC113034395
:1012D0002B728CE42B782A7913432B707EE0297AC9
:1012E000AF8808072A7801F0010300F1AD84D01916
:1012F00003449BB25FFA83FCFF2BBCFA8CFC87EAA9
:10130000020783EA020094BF0022012220EA0700BC
:101310004FEA5C1CC3F3C017C0F3C0102B7042EA45
:101320004C0343EA801301F03C0143EAC7130B432B
:101330002B725CE47CD301102B78A888297A1A1AC6
:10134000D2B28342B2FA82F034BF002301234009B3
:1013500002F0800243EA400301F07C0113430B4397
:101360002B7244E42B78AA8813402B7036E02B793B
:101370002B7033E02B7829792A7A581AB0FA80F04A
:101380004B4040092B7003F0800302F07D0243EADA
:10139000400313432B722AE42B7AC7F30242134112
:1013A000C7F3C04703F001039F427FF420AC6A8972
:1013B00095F9063013449BB282EA0301FF29AA7B08
:1013C000EB803FF64AAF0132D2B248E7AB7B013344
:1013D000AB732B78AB800AE42B796B70B3FA83F193
:1013E0002A7A03F08003490902F07D0243EA4103AF
:1013F00013432B72FFF7FBBB2B79AB70EEE76B89C6
:1014000024F0807463F30F04AB7B66F3174401335D
:101410002146AB732846AB6A984701222B7AC7F363
:101420000247BA4023EA020304462B721FFA80FAED
:10143000C0F30746FFF7DBBB287AAB8800F0010258
:1014400042EA430292B2C3F3C013D1B2B1FA81F1BE
:101450004909AA8043EA4103C2F3C01200F07C00AC
:1014600043EAC21303432B72FFF7C1BBAB88297A4F
:101470005A0092B201F07C01C3F3C013AA8002F0BB
:10148000FE00B0FA80F04009C2F3C01243EA400304
:1014900043EAC2130B432B72FFF7A9BB6B8924F0FD
:1014A000807463F30F04AB7B66F31744013321466A
:1014B000AB732846AB6A98470446AA88013A92B2B1
:1014C000D3B2B3FA83F3297A5B09AA805B00C2F333
:1014D000C01201F07D0143EAC2130B432B721FFAC5
:1014E00084FAC4F30746FFF782BB6B8924F080744B
:1014F00063F30F04AB7B66F3174401332146AB73F0
:101500002846AB6A9847AA8804460132D7E7AB88D9
:10151000297A5A0801F07C0103F00103AA80D0B2B5
:10152000AFE70023AB80FFF762BBAB88287A5A088D
:1015300000F0010103F0010342EAC11285E7A98826
:101540002A78C1F380130A40B2FA82F2287A9B010A
:101550005209C1F3C01143EA420300F03D0043EADF
:10156000C11303432B72FFF742BBAB78AB80FFF78D
:101570003EBB01232A7AC7F30247BB4013432B72B9
:10158000FFF735BBAB78D8E66B78D6E66B78AB80E7
:10159000FFF72DBBEB886B81FFF729BBA8882A7862
:1015A000297A02EA00030243B3FA83F35B0963F387
:1015B0004101AA802972FFF71ABBAA882878297AE4
:1015C00000EA020322EA0002EEE7AA882B78134021
:1015D000B3FA83F32A7A5B0963F341022A72FFF7B5
:1015E00006BB6B782B70B3FA83F12A7AA87B03F0E1
:1015F0008003490902F07D0243EA410301301343AD
:10160000A8732B72FFF7F3BAAB78EBE7AB7B013330
:10161000AB736B78EB70FFF7EABAEB7824F0807469
:101620000133DBB2EB7043F4807363F30F04AB7BE5
:1016300066F3174401332146AB732846AB6A9847DB
:10164000AB7BC0F307460233AB7326F0300343F0A5
:10165000200304462B721FFA80FAFFF7C8BA6B8981
:1016600024F0807463F30F04AB7B66F317440133FB
:101670002146AB732846AB6A98470446297A2B78F3
:10168000C1F3000242EA4302D2B2DB0901F07C015D
:10169000B2FA82F040092A7043EA400302F0800265
:1016A00013430B432B721FFA84FAC4F30746FFF768
:1016B0009EBA6B8924F0807463F30F04AB7B66F3EE
:1016C000174401332146AB732846AB6A98472B7801
:1016D000297A5A082A70B2FA82F203F001035209F9
:1016E00001F07C0143EA42030B4304462B721FFACC
:1016F00080FAC0F30746FFF77ABA6B8924F080744A
:1017000063F30F04AB7B66F3174401332146AB73DD
:101710002846AB6A984704466B780133DBB26B709E
:10172000FFF755BA6B8924F0807463F30F0466F3F6
:10173000174422E56B8924F0807463F30F04AB7BBC
:1017400066F3174401332146AB732846AB6A9847CA
:101750002B780446013BDBB22B70FFF738BA6B895C
:1017600024F0807463F30F04AB7B66F317440133FA
:101770002146AB732846AB6A98476B780446013B19
:10178000CCE7AA7BEB780132AA736A7844F08074C4
:1017900043F4807161F30F0462F31744013B214667
:1017A000EB702846AB6A9847AB7B04460133AB73BA
:1017B0001FFA80FAC0F30746FFF719BA6B8924F0C5
:1017C000807463F30F04AB7B66F317440133214647
:1017D000AB732846AB6A9847AB7804460133DBB25B
:1017E000AB70FFF7F4B9EB7824F080740133DBB20F
:1017F000EB7043F4807363F30F04AB7B66F3174421
:1018000001332146AB732846AB6A9847C0F30746BD
:101810000446B6FA86F32A7AC0F3C05102F07D027C
:101820006E705B095B0043EAC11313431FFA84FA2D
:101830002B72FFF7DCB96B8924F0807463F30F041B
:1018400001336B81AB7B66F3174401332146AB73E5
:101850002846AB6A984703231FFA80FA6B73C0F3DC
:10186000074640F00064FFF7C2B96B8924F080742A
:1018700063F30F04AB7B66F3174401332146AB736C
:101880002846AB6A98472B78297A5A00044601F01B
:101890007C01D2B2DB09FBE62B786B70A3E6EB7818
:1018A0006B70A0E66B8924F0807463F30F0401333E
:1018B0006B81AB7B66F3174401332146AB7328463B
:1018C000AB6A98470446EA78AB7B42F48072C4F373
:1018D000074124F0807462F30F040133AB73E98095
:1018E000AB6A214628469847A97BEB786A89013183
:1018F00040F08074A97343F48071120A61F30F04FD
:1019000062F31744013B2146EB702846AB6A9847C7
:10191000AA7BEB78013243F4807140F08074AA73A3
:10192000AA7A61F30F0462F31744013B2146EB707E
:101930002846AB6A98470446AB7B6A89013324F09A
:101940008074AB7362F30F04531C6B8128462146ED
:10195000AB6A9847EB88C0F3074643EA0623044680
:10196000EB806B811FFA80FAFFF741B9A97B2A7AD5
:101970000131EB7844F0807442F03002A97307E73C
:10198000EB7824F080740133DBB2EB7043F48073A6
:1019900063F30F04AB7B66F3174401332146AB734B
:1019A0002846AB6A9847AB7B2A7A0233C0F30746D6
:1019B000AB730446B6FA86F302F07D02C0F3C05161
:1019C0002E702EE76B8924F0807463F30F04AB7BD9
:1019D00066F3174401332146AB732846AB6A984738
:1019E0002B78297A5A080446C1F3000042EAC01253
:1019F00003F00103D2B249E6EB7824F0807401339E
:101A0000DBB2EB7043F4807363F30F04AB7B66F3DC
:101A1000174401332146AB732846AB6A98472A7AAC
:101A2000C0F307460446B6FA86F302F07D02C0F31F
:101A3000C051AE70F5E695F906206B8924F08074EC
:101A400063F30F041344EB80AB7B66F3174401335D
:101A50002146AB732846AB6A9847EA886B890446EF
:101A60005340FF2B1FFA80FAC0F3074602D9AB7B25
:101A70000133AB736A81FFF7BAB8AA7BEB78013206
:101A8000AA7344F08074AA7882E62B78AB70AAE53A
:101A9000AA7BEB780132AA7344F080742A7877E647
:101AA0006B8924F0807463F30F04AB7B66F31744F7
:101AB00001332146AB732846AB6A98470446EB785E
:101AC000AA7B0133DBB2EB7024F0807443F48073A3
:101AD00063F30F0401322146AA732846AA6A90478D
:101AE000012600222B7A0446C0F30740042A06FA96
:101AF00002F108BF052223EA010340FA02F15BB2BA
:101B000001F0010108BF23F02003914001320B4393
:101B1000082ADBB2EAD143F020032B72EB7824F0E1
:101B200080740133DBB2EB7043F4807363F30F0412
:101B3000AB7B21460133AB732846AB6A984704461A
:101B4000EB78AA7B0133DBB2C4F30741EB7024F0DE
:101B5000807443F48073013263F30F04AA73E98045
:101B600028462146AA6A9047F4E66B8924F08074DF
:101B700063F30F04AB7B66F3174401332146AB7369
:101B80002846AB6A98472B7804460133DBB22B70AA
:101B9000FFF71DB8EB7824F080740133DBB2EB70F3
:101BA00043F4807363F30F04AB7B66F31744013394
:101BB0002146AB732846AB6A98470446EB78AA7B6C
:101BC0000133DBB2C4F30741EB7024F0807443F4BB
:101BD000807363F30F040232AA73E980AA6A214674
:101BE00028469047EB88AA7BC0F3074643EA0623C2
:101BF0000232EB8001330446AA736B811FFA80FA2C
:101C0000FEF7F5BF002B7FF44FAA4CF2830082420F
:101C10007FF44AAA63F31864AB7B28460133AB73A5
:101C20004E4B63F30F042146AB6A9847C0F3074657
:101C30000446EA886B781FFA80FA3102FFF734BA5B
:101C400001226A73FFF739B802F00F010B4407F065
:101C50000F010B44092BFFB288BF06334FEA17115F
:101C600001EB121188BFDBB20F2B88BF0131574047
:101C700038064EBF002282EA0112C2F3C0120929BF
:101C800088BF0631287A88BFC9B203F00F0343EA40
:101C9000011362F38610DBB228720F29B3FA83F0C6
:101CA00094BF00220122297A40092B7042EA4002A7
:101CB00003F0800301F07C0113430B432B72FEF70A
:101CC00096BF02F00F01C3F19903C0F3000C0F445B
:101CD000944403F00F01DBB29C445FFA8CFCBCFA25
:101CE0008CFC0F44092F88BF06374FEA131188BFB9
:101CF000FFB201EB12110F2F88BF01314FEA5C1CBC
:101D000053406CF34100287218064EBF002382EA4C
:101D10000113C3F3C0132A7A092988BF063163F37C
:101D2000861288BFC9B207F00F0343EA0113DBB282
:101D30002B7003F080030F2988BF43F001032A7240
:101D40002A7A02F07E0213432B72FEF750BF698994
:101D5000034804F077FFFEF74ABF00BF83C0FFFFD0
:101D6000B8B9011030B584689DF80C309CB1B0F85A
:101D700000C08E46A1EB0C0CCCF3072C54F83C5061
:101D800004EBCC043DB16168AC4603931346724644
:101D9000BDE830406047002030BD00BFF0B50124F1
:101DA00083B0009406460F4614461D46FFF7DAFF3F
:101DB00080B932696B1EBD1832889BB2AD1A2246BB
:101DC000013323442D1B511912F8014BF0689A423C
:101DD0004454F8D103B0F0BDF0B5002483B00094B2
:101DE00006460F4614461D46FFF7BCFF80B9326910
:101DF0006B1EB91832889BB2891A013322462344DC
:101E00000C1BF0681119415C02F8011B9A42F8D1D1
:101E100003B0F0BD30B583B090F8491C044601F022
:101E20004BFB03F007F9D4ED0F7A07EE100AC7EE6B
:101E3000277A17EE900A03F0E7F94FF0000CB4F898
:101E40004E5CD4F8502C193D121AADB2A91804F505
:101E50002F60012389B20DF107028DF807C0FFF74B
:101E6000BBFF9DF8070003B030BD00BF2DE9F04176
:101E700004460D4690461E4682B0002B00F081803D
:101E80000122A1F540430C3B00F6C83780F8582EDC
:101E9000732B00F2CC80DFE813F09B019B018601DD
:101EA0008601CA00CA00CA00CA00CA00CA00CA0025
:101EB000CA00CA001501150115011501150115010A
:101EC0001501CA00CA00CA00CA00CA00CA00CA0076
:101ED000CA00CA00CA00CA00CA00CA00CA00CA00B2
:101EE000CA00CA00CA00CA00CA00CA00CA00CA00A2
:101EF000CA00CA00CA00CA00CA00CA00CA00CA0092
:101F0000CA00CA00CA00CA00CA00CA00CA00CA0081
:101F1000CA00CA00CA00CA00CA00CA00CA00CA0071
:101F2000CA00510151011901190135013501B600ED
:101F3000B600CA00CA00CA00CA00CA00CA00CE0061
:101F4000CE00CA00CA00CA00CA00CA00CA00CA003D
:101F5000CA00CA00CA00CA00CA00CA00CA00CA0031
:101F6000CA00CA00CA00CA00CA00CA00CA00CA0021
:101F7000CA00CA00CA00CA00CA00CA00CA00CA0011
:101F80001501A1F540430E3B00F6C837712B4ED822
:101F9000DFE803F04D4D4D4D4D4D4D4D4D4D4DE256
:101FA000E2E2E2E2E2E24D4D4D4D4D4D4D4D4D4DE3
:101FB0004D4D4D4D4D4D4D4D4D4D4D4D4D4D4D4D51
:101FC0004D4D4D4D4D4D4D4D4D4D4D4D4D4D4D4D41
:101FD0004D4D4D4D4D4DD4D49C9CB8B839394D4DD7
:101FE0004D4D4D4D51514D4D4D4D4D4D4D4D4D4D19
:101FF0004D4D4D4D4D4D4D4D4D4D4D4D4D4D4D4D11
:102000004D4D4D4D4DE2D4F8EC39E90165F38613A1
:10201000C4F8EC398DF80710012338464CF21D0145
:102020000DF10702FFF7BAFE012384F8583E0020A5
:1020300002B0BDE8F081002601234CF25E01384673
:102040000DF107028DF80760FFF7C6FE01230DF1C1
:1020500007024CF25F0138469DF807808DF8076053
:10206000FFF7BAFE15F001039DF8072004D0B8F180
:10207000000F00F0838080234CF25E0138468DF81B
:1020800007300DF107020123FFF788FE4CF25E02D4
:10209000954214BF00218021D4F8EC398DF8071047
:1020A00014BF23F4803343F48033C4F8EC3938464A
:1020B00001234CF27F010DF10702FFF76FFE0123B0
:1020C00084F8583E012002B0BDE8F081D4F8EC3924
:1020D000384665F30413C4F8EC394CF21B010123B4
:1020E000ED018DF807500DF10702FFF757FE0123B0
:1020F00084F8583E002EE5D12046FFF78BFE88F885
:102100000000DFE7D4F8EC394CF21C0165F345130D
:10211000C4F8EC39ED01012338460DF107028DF8C2
:102120000750FFF73BFE002E67D0D4F8EC39DB07F1
:102130003FF57DAF012384F8583E78E7D4F8EC39B9
:10214000384665F3C303ED01C4F8EC394CF21A01CB
:1021500001238DF80750C6E7002401230DF1070283
:10216000294638468DF80740FFF736FE98F80020DC
:102170009DF80730134388F80030A3E794F8EC3952
:102180004CF25F01C3F3800343EA420303F003030D
:1021900084F84B3C8DF80730384601230DF10702D7
:1021A000FFF7FCFD67E7D0F8EC39C90165F341039F
:1021B000C4F8EC398DF80710012338464CF21E01A3
:1021C0000DF10702FFF7EAFD012384F8583E79E795
:1021D000D0F8EC39C90165F38203C4F8EC398DF805
:1021E0000710012338464CF21F010DF10702FFF7DB
:1021F000D5FD012384F8583E64E7012338464CF2AC
:102200001C010DF107028DF80760FFF7E5FD9DF851
:10221000073088F8003088E7704700BF2DE9F04F9D
:10222000A0F5446ADAF8EC290346100787B001D418
:1022300052066FD45A68002A6CD0D2F810B0BBF1A5
:10224000000F67D04FF00009A3F5A8704E468046F6
:1022500001F5EF550BF108031F3502932C460027BB
:102260004FEAE90309F0070203EB83030832DB00BE
:1022700003EBC2139BB20193019B0DF11702D91915
:1022800089B2012340468DF81760FFF7A5FDDAF803
:10229000582C9DF8173012F0100F0CBF40226FF031
:1022A0003F02A3F140013F2998BF9B18029A98BFB3
:1022B000DBB20BEBC30102EBC3032246CDF80C806B
:1022C0009446002011F801EB4EFA00F818F0010FC7
:1022D0000CBF4FF00F084FF00008013007280CF832
:1022E000018FF1D19942167202F5A072E8D101373F
:1022F000282FDDF80C8004F10804BDD109F1010993
:10230000B9F1180F05F52065A8D1DAF8583C01336A
:10231000CAF8583C07B0BDE8F08F00BF2DE9F8437C
:10232000DFF850900746D9F80080B8F1000F1BD0B5
:102330004446002586680AE005D16168786813F094
:10234000B5FD002809DB2368254643B11C4630460D
:10235000A16813F0ABFD0028EEDA2DB12C462368FE
:102360003B602760BDE8F883C7F80080C9F80070BB
:10237000BDE8F883CCA5002038B50D4B1C6850B1E2
:10238000054614B909E024683CB12946606813F099
:102390008DFD0028F7D1204638BD0024054A2B4684
:1023A00010680549054AC06813F08EFA204638BD0A
:1023B000CCA50020CC270020D8B901107CDB01106F
:1023C00000232DE9F04FD0F8EC5989B0C0F8D83788
:1023D000C5F340139C46069305F400630793D0F8B9
:1023E000183A05F001010446894605F4806805F0B5
:1023F000400BC5F3C016C5F3002705F4007A002B87
:1024000040F0E08000231946E2180133C02B82F827
:10241000D816F9D19923772184F89837C123E21887
:102420000133B3F5807F82F8D816F8D1B8F1000FE8
:1024300003D044F24443A4F8D836022306F00F0632
:1024400007F00F07B60146EA8706E2180133C02BF2
:1024500082F8D866F9D1B9F1000F33D0069B94F811
:10246000DC6694F8DD0694F8DE1603F00F0294F8AB
:10247000DF36920062F3071662F3071062F307116A
:1024800062F3071362F3030662F3030062F30301CE
:1024900062F3030384F8DC6684F8DD0684F8DE1654
:1024A00084F8DF36BBF1000F0CD02021601890F8C3
:1024B000D836013162F3071362F30303402980F831
:1024C000D836F3D12368012B15D0BAF1000F12D101
:1024D000C1238821E2180133D02B82F8D816F9D114
:1024E000079B33B9072294F89B3762F3071384F8EC
:1024F0009B37AB034AD405F48056C5F3803115F4FD
:10250000005507D0B8F1000F2CD0002E4FD0052079
:10251000034602E006BB0720034640EA0310D0232F
:10252000E2180133B3F5807F82F8D806F8D1EDB117
:10253000B8F1000F21D14A1C002E14BF114607210B
:10254000D02341EA0211E2180133E02B82F8D816B9
:10255000F9D109B0BDE8F08FB8F1000F2FD00520F8
:102560000723DAE746B301200346D6E75EB1072228
:10257000B8F1000F1ED10131E2E74A1D002E14BF51
:1025800011460721DCE707210A46D9E7D4F8A0273E
:10259000D4F8A43702F00F3203F00F3342F0703258
:1025A00043F07033C4F8A027C4F8A437A3E707208A
:1025B0000523B2E70531C3E707200123ADE701207A
:1025C0000723AAE705F40062C2F3C0220592CDE911
:1025D0000267CAF340220492CBF380120192009169
:1025E000418A63464FEA9822014804F02BFB09E731
:1025F000F0B9011030B50C4683B000F6C83564F070
:102600007F0C28460DF1070201234CF210018DF8D2
:1026100007C004F07F04FFF7C1FB01234FF44041E2
:1026200028460DF107028DF80740FFF7B7FB03B00E
:1026300030BD00BF2DE9F041054682B04A488846CA
:10264000FFF79AFE2B68C5F8380C012B00F0838049
:1026500095F83B30012443F00403026985F83B30D0
:102660004FF4A043002605F6C8374CF21701384650
:10267000C5F8A42BC5F8EC3901AA23462C648DF8C3
:102680000460FFF78BFB4CF213012346384601AA86
:102690008DF80460FFF782FB4CF2140123463846A4
:1026A00001AA8DF80460FFF779FB4CF2160123466E
:1026B000384601AA8DF80460FFF770FB4CF2180150
:1026C0002346384601AA8DF80460FFF767FB4CF2F9
:1026D0001F012346384601AA8DF80460FFF75EFB10
:1026E0004CF273012346384601AA8DF80460FFF7C7
:1026F00055FBC5F8D847B8F1000F16D1012328467D
:10270000C5F8D837FFF75CFE05F6E43405F6384621
:10271000A36823B1DB6913B12146284698470C34DE
:10272000B442F5D102B0BDE8F0812346384601AA93
:102730004CF215018DF80460FFF730FB45F255505F
:102740000223ADF8040040F2F23101AA05F52F6032
:10275000FFF724FBD2E7054804F0FCF90448FFF733
:102760000BFEC5F8380C73E774B9011054BA0110A8
:1027700068BA0110F8B50446504804F0EBF944F685
:10278000F8620021204613F001FA4D4B4D48E363F7
:1027900004F0E0F9F0224C4904F52F6013F00AFD33
:1027A00094F8F33A494D43F0020384F8F33A94F86D
:1027B0000B3B474E43F0020384F80B3B94F8233B5A
:1027C000444F43F0020384F8233B94F8533BC4F88E
:1027D0005C5B43F0020384F8533B94F83B3BC4F842
:1027E000445B43F0020384F83B3B94F86B3BC4F832
:1027F000745B43F0020384F86B3B94F8833BC4F8AA
:102800008C5B43F0020384F8833B94F8CB3BC4F821
:10281000FC6A43F0020384F8CB3BC4F8146BC4F8A1
:102820002C6BC4F8D47B2C4804F094F92B4804F0AA
:1028300091F94FF480320021304613F0A7F928486F
:1028400004F088F94FF450420021284613F09EF915
:10285000244804F07FF94FF480720021384613F0C9
:1028600095F94EF6FB332048A38304F073F9012158
:102870002046FFF7DFFE04F10800FDF7CFFF00213F
:1028800001220223194D84F8E51B256384F8F12BFE
:10289000032584F8FD3B04210623052284F8095C06
:1028A00084F8151C84F8212C84F82D3CC4E90D40D3
:1028B000BDE8F8400E4804F04DB900BF6CBA0110F5
:1028C000B9E8823F8CBA0110B0DB011028A60020C5
:1028D0002876012028760220ACBA0110D4BA011063
:1028E000F4BA011014BB011034BB0110C132001046
:1028F00054BB01102DE9F04F87B09DF840400546CC
:102900009A460F469146002C4BD1B1F5404F34D337
:10291000B1F5414F42D34CF6FF7399422DD1D5F812
:10292000EC399A0340F1C880A8460024B04E14E068
:102930009B68A34405EB8B0B2246AE49AE4804F0DE
:1029400081F99BF8E43B23F001038BF8E43B01346D
:10295000072C08F10C0800F0A38004EB440005EB01
:10296000800090F8E43B4FEA440BDB07EFD5D8F842
:10297000EC3B002BDCD13346DBE7BAF1000F40F033
:10298000C38017F0E00F00F0CA8000234A463946A2
:102990002846FFF76BFA002800F0108107B0BDE869
:1029A000F08F4CF6FF739942B9D000F6C836BAF1F1
:1029B000000F00F0E5804CF21003994200F05882BD
:1029C00000F24E82B1F5404F40F0B9800123FFF78D
:1029D0004DFA0028E2D1D5F8E03BD5F8EC4983B1B7
:1029E000FAB253F8328003EBC203B8F1000F08D0FB
:1029F00059683A464B463046CDF800A0C0470028FB
:102A0000CCD14CF28F039F4200F2D4814CF253039D
:102A10009F4240F2C381A7F54042A2F154033B2BF1
:102A200000F2EE80DFE813F03D013D013D013D0184
:102A3000EC00EC00EC00EC00EC00EC00EC00EC0036
:102A4000EC00EC00EC00EC00300130013001300112
:102A50005601EC00EC00EC00EC00EC00EC00EC00AB
:102A60003001EC00EC00EC00EC00EC00EC00EC00C1
:102A7000EC00EC00EC00EC00EC00EC00EC00EC00F6
:102A80000101010101010101010101010101010136
:102A90000101010101010101010101010101010126
:102AA000D5F8EC39284623F40033C5F8EC39012376
:102AB000C5F8D837FFF784FC53464A464CF6FF71F9
:102AC0002846FFF7D3F900287FF468AF3B0ABAF134
:102AD000000F74D02B4493F8D8364A4603F00F0306
:102AE00003EB4303DB0003F52F602B4493F8F33A29
:102AF000394613F0080F28444FF001033AD107B0CC
:102B0000BDE8F04FFFF74AB901234A463946284647
:102B1000FFF7ACF900287FF441AF3B0ADAE705F68E
:102B2000C83601234FF4404130460DF117028DF8AD
:102B300017A0FFF751F99DF8173089F80030534678
:102B40004A4639462846FFF791F900287FF426AF18
:102B500007F580439BB2FF2BB8D8D5F8E03BD5F8FA
:102B6000EC49002B7FF43CAF4CF28F039F427FF681
:102B70004DAF26E1109307B0BDE8F04FFFF7F2B874
:102B800011F0E00400F03E814CF21003994200F095
:102B90009B8100F28F81B1F5404FD0D10DF117022A
:102BA0000024012330464CF210018DF81740FFF746
:102BB00013F99DF8173089F80030EFE63B0A00243E
:102BC0002B4493F8D83639461B0903EB430305EB36
:102BD000C30000F52F6001230DF117028DF8174097
:102BE000FFF7FAF89DF8173089F80030D6E600BFF5
:102BF0006CBB01109CDB011074BB0110A7F54042B7
:102C00002968012951D0BAF1000F00F0AF81D5F841
:102C1000EC39A4B20B2A00F27B81DFE802F0AFAFFF
:102C20009F9F8F8F878777775E5EFE07D5F8EC3999
:102C300007F0020140F1368123F40042BAF1000F9F
:102C400005D118044CBF42F4104243F4004222F470
:102C5000005242EA0132C7F3C00383F0010322F4B9
:102C6000804242EA8332A3B29B1A18BF0123C5F8FF
:102C7000EC29C5F8D837002B3FF490AE284607B0B2
:102C8000BDE8F04FFFF79CBB05F59D414B463A462A
:102C90002846CDF800A05031FDF712FBD5F8D83703
:102CA000E9E70123C5F8D837E8E7A2F120030F2BA5
:102CB000A9D8D5F8383CD5F8A42B1B699A4200F066
:102CC0003681A84803F046FFD5F8383C1B69C5F8A3
:102CD000A43B63E6D5F8D837CDE767F3CB23C5F837
:102CE000EC39FF01304601234CF217010DF11702B8
:102CF0008DF81770FFF752F8D5F8D837D5F8EC29CA
:102D0000A24218BF0133C5F8D837B4E767F38A2366
:102D1000C5F8EC39FF01304601234CF216010DF1E4
:102D200017028DF81770FFF739F8E5E7012940F031
:102D3000098143F40073C5F8EC39DDE767F3082334
:102D4000C5F8EC39FF01304601234CF214010DF1B6
:102D500017028DF81770FFF721F8CDE767F3C71357
:102D6000C5F8EC39FF01012330464CF213010DF197
:102D700017028DF81770FFF711F8BDE767F300032E
:102D8000C5F8EC39FF01304601234CF218010DF172
:102D900017028DF81770FFF701F8ADE74CF230031A
:102DA0009F427FF42BAF05F67860FDF78BFAD5F8DC
:102DB000D83760E707F57D5330339BB26F2B00F2B5
:102DC0009280C7F30213013B03EB430305EB83023D
:102DD000D2F8EC1B9B0000293FF47CAF03F6E433F0
:102DE000CDF800A00C6A3A46E918284699F8003058
:102DF000A047BAF1000F7FF46DAF89F80000D5F855
:102E0000D83738E70DF1170201234FF4404130461F
:102E100003928DF817A0FEF7DFFF4CF210039DF828
:102E200017109F42039A89F800106AD004D8B7F5AA
:102E3000404F3FF4B5AE82E607F57E531F339BB299
:102E4000022B3FF67CAE00240123394630468DF834
:102E50001740FEF7C1FF9DF8173089F800309DE557
:102E600001F57E531F339BB2022B7FF697AD66E6CA
:102E700000240DF117020123304603928DF817400C
:102E8000FEF7AAFF9DF81740039A01234CF21001A8
:102E9000304604F07F048DF81740FEF77FFF07B03F
:102EA000BDE8F08FB1FA81F123F43042490942EADA
:102EB0004132D0E601F57E531F339BB2022B3FF621
:102EC0003EAE0DF11702BEE70DF117028DF817A007
:102ED000012330460392FEF77FFF9DF81740039AC7
:102EE00089F80040D1E7BAF1000F0ED12846FEF76D
:102EF00091FF89F80000D5F8D837002B3FF44EAD8C
:102F0000BCE639468DF81740E2E7D5F8EC39A4B2B3
:102F1000D5F8D8279C4218BF0132C5F8D8270AB97E
:102F2000C023D7E52846FFF74BFA3B0AD2E50E4807
:102F300003F010FED5F8383C1B6903F58043C5F853
:102F4000A43B2BE567F34923C5F8EC39FF01304674
:102F500001234CF215010DF117028DF81770FEF7E1
:102F60001DFFC9E698BB011080BB0110113A572A1A
:102F7000BCD801A353F822F0D93000103D31001025
:102F80003331001033310010333100103331001071
:102F9000FD30001033310010ED2E0010ED2E00102A
:102FA000ED2E0010ED2E0010ED2E0010ED2E001075
:102FB000ED2E0010D52C0010D52C0010D52C0010B3
:102FC000D52C0010D52C0010D52C0010D52C0010BD
:102FD000D52C0010D52C0010D52C0010D52C0010AD
:102FE000D52C0010D52C0010D52C0010D52C00109D
:102FF000D52C0010ED2E0010ED2E0010ED2E00103F
:10300000ED2E0010ED2E0010ED2E0010ED2E001014
:10301000ED2E0010ED2E0010ED2E0010ED2E001004
:10302000ED2E0010ED2E0010ED2E0010ED2E0010F4
:10303000ED2E0010ED2E0010ED2E0010ED2E0010E4
:10304000ED2E0010ED2E0010ED2E0010ED2E0010D4
:10305000ED2E0010ED2E0010ED2E0010ED2E0010C4
:10306000ED2E0010ED2E0010ED2E0010ED2E0010B4
:10307000ED2E0010ED2E0010ED2E0010ED2E0010A4
:10308000ED2E0010D52C0010D52C0010ED2E0010C8
:10309000ED2E0010ED2E0010ED2E0010ED2E001084
:1030A000ED2E0010ED2E0010ED2E0010ED2E001074
:1030B000ED2E0010ED2E0010ED2E0010ED2E001064
:1030C000ED2E0010ED2E0010ED2E0010ED2E001054
:1030D000ED2E0010D52C0010D5F8EC3999F8002011
:1030E000DB0923F07F0302F07F02134389F80030ED
:1030F000D5F8D837002B3FF451ACBFE501293FF498
:10310000E9AD0024012330464CF217010DF11702FE
:103110008DF81740FEF760FE99F800209DF81730F3
:10312000134389F80030D5F8D837002B3FF436AC7C
:10313000A4E50024394630460123E7E7D5F8EC3909
:1031400099F800209B09CCE7F0B5054695F83B308F
:103150002A8F13F0020F0CBF2026492613F0010F0F
:103160000CBF5224572495B0049295F83A20334866
:103170000592AA7A324F0092EA7A0192AA7D0292CF
:103180002A7A6B7A698A0396069403F05BFD002421
:1031900043222C4E01E016F8012F2B7C10462341D0
:1031A000D90705D4BB5C03F00303012B08BF203013
:1031B000013403F0BFFC082CEDD10024274608AEF3
:1031C000698A3246214400232846009789B2013497
:1031D000FFF790FB042C06F10106F1D19DF82020A9
:1031E000194B202003EBC2039A795E7902F007079E
:1031F000C2F3C00403F09EFC02230093698A2023DB
:103200000CAA08A8FDF760F810480CA903F01AFDF5
:10321000730605D52B7C3B4103F00103A34204D088
:103220000A2003F087FC15B0F0BD094803F00AFD41
:103230000A2003F07FFC15B0F0BD00BFB0BB011049
:10324000893E0210F0BB01107CD30110FCBB0110C1
:1032500004BC01102DE9F04F00274FF0030A064689
:10326000B84697B096F8103A0DF1080B3B4403F0BE
:103270000F0303F59F6336F813904C4609F10405DC
:10328000ADB2214601345A4600233046CDF80080C5
:10329000A4B2FFF72FFBAC420BF1010BF1D140239D
:1032A000494606AA02A8CDF800A0FDF70DF801379F
:1032B00006A803F04FFC102FD4D117B0BDE8F08F53
:1032C0002DE9F04FD0F82CB087B09BF8D0309BF8A8
:1032D00016200E469A42CBF8381040F29A80D31A44
:1032E0001D46DB170393DBE9327957EA09013CD02D
:1032F0005B464FF00108AB464D460596002F69D05E
:1033000097FAA7F2B2FA82F20132561E06EB460A8B
:10331000A2F1210403EBCA0AC2F1210228FA02F247
:10332000DAF8E01008FA04F41443DAF8E42008FAB2
:1033300006F6012927EA060625EA040472F10000D0
:10334000374625460CDB0398B1EB0B0162EB00021C
:103350000129CAF8E42072F10002CAF8E01042DB49
:103360003443CBD19B46059E9A7DB0018BF8D0208B
:103370001FFA86F8C6F300690CD59BF8102ABBF833
:10338000121002F59F63013202F00F022BF81310A6
:103390008BF8102ABBF8685A002D3ED101244B4609
:1033A000414658460BF13A020094FFF7A3FA9BF806
:1033B0003B30BBF84610C3F3C002002918BF42F0EF
:1033C000010262F3C3038BF83B30DBF8380007B02F
:1033D000BDE8F08F3A46002D97D095FAA5F2B2FAE3
:1033E00082F2213291E7DAF8D820002AB8D01846C4
:1033F000DAF8DC1004939047DAF8E020049B121806
:10340000DAF8E400CAF8E02040EB0100CAF8E40072
:10341000A6E700231546039365E700240126274607
:103420002B462341D90725D504F24D130BEBC303DB
:10343000B3F8053043451DD80BEBC40595F86F2A4A
:103440001344984516DA95F86C3A5A0718D5B9F12D
:10345000000F1AD0980718D41A0607D4BBF8682AA8
:1034600006FA04F122EA0102ABF8682A43F00803E5
:1034700085F86C3A0134102C90D0BBF8683AD0E74C
:103480009907E9D5B9F1000FE6D0BBF812304246F2
:103490002146084803F0D6FB5846FFF7DBFE5846A6
:1034A000FFF752FE0223CBF81870CBF8403095F8A6
:1034B0006C3AD1E710BC01103F2906D801EB41015D
:1034C00000EBC100D0E938017047002000217047AF
:1034D00010B5036C0446012B84B012D1D0F8182A21
:1034E0001F4B012AC8BF0023A16BA36104F1080090
:1034F000FDF798F98100A0634FEA106203D404B08D
:1035000010BD0023F0E7002322F0220242F0020265
:10351000618A84F83B20204600930DF10F028DF85C
:103520000F30FFF7E7F99DF80F10B4F81C3A608AE6
:103530000B410130DB0760820AD504EB8103D3F82D
:10354000203A002BDBD0204604B0BDE810401847DD
:103550000A460448044903F075FB02232364CEE7BE
:10356000A086010030BC011088DB0110002300B5EB
:1035700085B00DF10F0200938DF80F30FFF7BAF907
:103580009DF80F0005B05DF804FB00BF38B5836AF5
:103590005D18AB4238BF044606D308E02046FFF76B
:1035A00097FFA36AAB4202D2236C012BF6D038BD41
:1035B0000148FEF7B3BE00BFB42200200148FEF769
:1035C000ADBE00BFCC22002010B44FF480740C4B71
:1035D00053F8202003EB8003C00082F0400200F18A
:1035E000804003F5805C02F0C00200F5203003F556
:1035F0004053CCF8002041601C605DF8044B7047DC
:103600000480034010B4084CC90041EA820154F818
:10361000202004EB8003514003F5805301F00C019E
:103620005DF8044B1960704704800340054B53F864
:10363000202003EB8003514001F0010103F580538A
:103640001960704704800340064B53F8202003EBB9
:10365000800382EA011202F0300203F580531A60FF
:10366000704700BF0480034030B44FF0000343ECC8
:10367000440043EC400005254FF480740B4BC2001E
:1036800053F8201003EB800081F0400102F18043E9
:1036900003F5203301F0C00200F5805100F54050E1
:1036A0000A605D60046030BC704700BF0480034066
:1036B0000FB400B583B0049C074803F04BFA3CB14B
:1036C00005A92046019103F05DF8044803F042FA91
:1036D000012003F06FF800BF98BC01108CB70110F7
:1036E000EFF3108072B6064BD3E8CF1F01220029FA
:1036F000FAD1C3E8412F0029F6D1BFF35F8F70479D
:103700000F9D00200023034AC2E88F3F80F31088FA
:10371000704700BF0F9D002070B58646EFF31085FF
:1037200072B6124CD4E8CF6F0120002EFAD1C4E853
:10373000460F002EF6D1BFF35F8F4FF0010CC80883
:1037400001F007030CFA03F31EF800C01CEA03069D
:1037500008D14CEA030C0EF800C0C4E88F6F85F363
:10376000108870BD1046FFF7A3FF00BF0F9D00201B
:10377000F8B5EFF3108772B61C4ED6E8CF5F012480
:10378000002DFAD1C6E8454F002DF6D1BFF35F8F6B
:103790009A421BD8012502E00132934222D3D40879
:1037A00010F804E002F0070C05FA0CFC1EEA0C0FFE
:1037B000F2D14EEA0C0E00F804E010460023C6E8F1
:1037C0008F3F87F31088984207DBF8BD0023C6E8D7
:1037D0008F3F87F310884FF0FF300029F5D006980F
:1037E000FFF766FF4FF0FF30E8E700BF0F9D0020B6
:1037F000044A1078431CDBB2182B28BF1023137027
:10380000704700BFE422002010B5054C82B001468D
:103810001F23182200940348FFF7AAFF02B010BD2F
:10382000A8BC01102CA100204FF0E022936843F0C7
:1038300000539360704700BF0021044B03F1200246
:10384000C3E88F1F01339342FAD17047049D0020D3
:103850004FF08030044B05491A4604338B42106008
:10386000FAD162B6704700BF00E400E034E400E043
:10387000012300F01F029340400941B1800000F194
:10388000604000F56140C0F8803103607047024A33
:10389000203042F82030704700E100E00123064A62
:1038A000410952F8212000F01F0003FA00F01040F7
:1038B000003818BF0120704700E100E001224309F1
:1038C000034900F01F008240403341F82320704735
:1038D00000E100E0054A10309268054B52F82000E4
:1038E000C01A2F288CBF00200120704700ED00E097
:1038F000E8220020F8B50D46EFF3108772B6124E9D
:10390000D6E8CF2F0123002AFAD1C6E8423F002A89
:10391000F6D1BFF35F8F0D4B00F110049B680C4A8A
:1039200053F82430934203D0994201D001F0F6F8C5
:10393000064B9B6843F82450BFF35F8F0023C6E813
:103940008F3F87F31088F8BD0D9D002000ED00E04B
:103950001101001010B4EFF3108172B6114BD3E8CF
:10396000CF4F0122002CFAD1C3E8442F002CF6D10E
:10397000BFF35F8F0C4A10309468002254F8200087
:10398000C3E88F2F81F31088084B984207D0084B6B
:10399000C31A2F2B98BF10465DF8044B7047104692
:1039A000FAE700BF0D9D002000ED00E011010010BE
:1039B000E82200202DE9F04F81468B46164683B061
:1039C000EFF3108372B6DFF8D0A10093DAE8CF1FCF
:1039D00001230029FAD1CAE8413F0029F6D1BFF3FB
:1039E0005F8F664B93F90040002CC0F2A080644DBD
:1039F00004EB440705EB870898F8061009F1100955
:103A00001970604BBF009B6853F829006300411B8D
:103A10002F292FD95C49884240F0A4801C445B4B7D
:103A200002372F44043BDB1BC3F34A036FEAC34353
:103A30004FF421416FEAD34325F8241005EB8404A9
:103A400063804BF60153A380FF2348F00100E67129
:103A5000C4F808B0A3714B4B9B6843F82900BFF32F
:103A60005F8F0023CAE88F3F009B83F3108803B069
:103A7000BDE8F08F20F0010E9EF80710B1422ED85D
:103A80004FF42143EB53414BB91C2944043B043709
:103A90005B1A2F44AEF10401C91BC1F34A043C492F
:103AA000C3F34A030B432143A8F804103949A8F88B
:103AB00002304AF6AA2073465B1B5B415843000D57
:103AC00088F8076088F80600C8F808B048F00100D8
:103AD000CEF80010BFE7D179B1422ED996469EF9B3
:103AE00006C00CEB4C02BCF1000F05EB8202F2DACF
:103AF0004BF601510EF10402A8F10407BF1AC7F3F7
:103B00004A076FEAC7476FEAD7478EF8064003EBCC
:103B10000408204C05EB8803AEF8047045F82840F3
:103B2000998083F806C0DE71C3F808B093E700F00F
:103B3000F5FF124B93F9004059E7724632F8041F23
:103B4000490514D44915023102EB410101916FF08E
:103B50000701C91B019F491B3944C1F34A0141F4C4
:103B60006041C9E7019300F0D9FF019B56E701F5D9
:103B7000FF1101F5FF511F31E4E700BF4D7702202F
:103B8000E822002000ED00E01101001018230020C1
:103B900000E0FFFF014880470D9D00202DE9F04F18
:103BA00083B0EFF3108A72B6714ED6E8CF2F01239F
:103BB000002AFAD1C6E8423F002AF6D1BFF35F8F50
:103BC0006C4B00F110089B686B4A53F828509542E3
:103BD00045D08D420C4650D0684FEB1B2F2B3ED862
:103BE00001214FEA50194FEA890909F1604909F5A5
:103BF000614900F01F0301FA03F0D9F80030C9F859
:103C0000800000EA030BBFF35F8FEFF30581C9B2B9
:103C1000002934D0884505D0CDE9001000F07EFFA2
:103C2000DDE9001025F0010EDEF808C0644505D17D
:103C300089E0D3F808C0644531D09E469EF906203D
:103C400002EB4203002A07EB8303F2DA644561D0FA
:103C5000BBF1000F20D0C9F88001C9F80000454B26
:103C60009B6843F82850BFF35F8F0023C6E88F3F5F
:103C70008AF3108803B0BDE8F08F1546EFE725F012
:103C8000010EDEF808C06445D8D19EF9064073469F
:103C9000002C08DA154646E0C9F88000DFE793F902
:103CA0000640002C37DB04EB440C07EB8C0C9CF833
:103CB0000710DCF80820D9719A609CF90620610091
:103CC000002A9A713DDBBCF804E05FEA4E5E05D540
:103CD0000EF5FF1E0EF5FF5E0EF11F0E6FF0070CC6
:103CE0000A194FEA6E5E920002EB4E0208323A4425
:103CF000ACEB030C6244C2F34A026FEAC2426FEAC1
:103D0000D2429A801E4B21441A7807EB81011C7025
:103D10008A719DE77346D9B9FF228EF806204BF6CB
:103D20000152AEF80420164C4AF6AA2294F800C0BC
:103D30001946C91B49414A43120D83F806C0227037
:103D400086E7104ADDE79EF906407346002CAADAA2
:103D50000D4A0E4CD21A083AC2F30A316FEA0151E9
:103D60006FEA115144EA5202DA80998070E700BF8D
:103D70000D9D002000ED00E011010010E822002060
:103D80004D77022001BDFFFF2223002000F8FFFF36
:103D90004FF0FF0C20F0030303F1604303F564438D
:103DA00000F003001A68C0000CFA00FC22EA0C02C2
:103DB00081400A431A6070472DE9F041EFF3058610
:103DC000F6B2EFF3108E72B6204DD5E8CF2F012357
:103DD000002AFAD1C5E8423F002AF6D1BFF35F8F2F
:103DE0001B4F40F0010CBA684AF6AA2352F826800D
:103DF000184C0246121B524153431B0DE04559B269
:103E000014D02246002392F906C00C328C4512D001
:103E10000133042BF7D1104B00221C7819708471E8
:103E2000C5E88F2F8EF31088BDE8F081BB680B4A80
:103E300043F82620EFE703EB430304EB8304FF235F
:103E4000A3714BF60153A380E5E700BF0D9D002051
:103E500000ED00E0E82200204D7702201101001063
:103E600010B5074C82B00146052300220094054896
:103E7000FFF77EFC0028A8BFC0F1330002B010BDE0
:103E8000C4BC011051770220014B0B440360704702
:103E9000049D002070B5114C114DAC421CD2FF2680
:103EA0000BE0FFF7A5FC01462046FFF7EDFFA680DB
:103EB000BFF35F8F0834AC420ED22368002BF0D1E1
:103EC000FFF796FC01462046FFF7DEFF2671BFF3A1
:103ED0005F8F0834AC42F0D370BD00BF2C2C0020A3
:103EE0003C2C002010B50446FFF782FC014620461A
:103EF000FFF7CAFFFF232371BFF35F8F10BD00BF21
:103F000010B504460120FFF77FFC034B03442360F8
:103F1000BFF35F8F10BD00BF049D0020024B0B4418
:103F20000360BFF35F8F7047049D00200D4B1A683C
:103F3000EFF3108172B6D2E8CFCF0120BCF1000FB1
:103F4000F9D1C2E84C0FBCF1000FF4D1BFF35F8F81
:103F500000221B68C3E88F2F81F3108840BF002028
:103F600000217047287702202DE9F04F2DED028BBC
:103F700085B0EFF30583DBB2103B9A0818BF01222E
:103F80004FF0010103F0030018BFAD4DAD4B08BF6A
:103F9000AD4D00EB820201FA00FB53F8226005F5FB
:103FA00041539FEDA58B0190C3F804B0CDF800B04C
:103FB0002FE0B388190440F19180B379002B40F0D1
:103FC000DA80B6F90840002CC0F21881736904EB5E
:103FD000440403EBC403D3E90247B7F1FF3F08BF32
:103FE000B4F1FF3F0ED00198AB6A05EB80010A697E
:103FF000D21AE31A934204D301232A6A834013425C
:1040000000D10C61284600F045FBA042B941C0F246
:10401000F580B6F90840009B002CEB63C9DBD6F8AD
:10402000148004EB4409284608EBC907D7E902BA13
:1040300000F030FB584571EB0A01BADBBAF1000F12
:10404000C0F2BF80D7E90431804A934200F0E88093
:104050007A88B6F9080092B242EA004098470246D0
:104060000B4652EA030100F0AC80002B80F2CC80BA
:10407000BBEB020B6AEB030A38F93930C7E902BA25
:10408000002B96DB716903EB430201EBC202D2E91C
:104090000270BB457AEB000C4FEA430289DBB44661
:1040A0002CF8083F06E003EB430001EBC0005A0088
:1040B000D0E90270BB451A447AEB000001EBC20E56
:1040C00004DB31F93230F446002BECDA28F83930D1
:1040D000ACF80040B38819043FF56FAF3369EFF3D4
:1040E000108272B6D3E8CF0F01210028FAD1C3E8BD
:1040F000401F0028F6D1BFF35F8F4FF6FF74B088E2
:104100000023316900B2B480C1E88F3F82F3108888
:104110009842FFF652AF0746A946746906F10808AF
:1041200007EB470E04EBCE03D3E90250B6F9083093
:10413000C446002BA8BFB34605DA0FE034F93A3085
:104140009446002B09DB03EB430A04EBCA02D2E9D5
:104150000261B54270EB0101F0DA5E46ACF8007026
:1041600034F93E7024F83E30002FD9DAB3794D4649
:10417000002B3FF426AF0023B371B6F9084006F1D7
:10418000080E621C234639D0706903E08E465A1C23
:104190003FF419AF03EB430200EBC2014F889C468A
:1041A0003F0430F93230F1D5644581ED028BEED019
:1041B000AEF800303189644620F83210A6F808C005
:1041C000E5E738F8393033813369EFF3108272B69E
:1041D000D3E8CF0F01210028FAD1C3E8401F0028FF
:1041E000F6D1BFF35F8F7388316928F83930002327
:1041F0007480C1E88F3F82F31088DAE640BF05B0D3
:10420000BDEC028BBDE8F08F2846CDE9022300F01B
:1042100041FA029A039B10EB020B43EB010A2BE7D6
:1042200008460B69029198470028CAD00299D1E943
:10423000002316E7AFF30080FFFFFFFFFFFFFFFF44
:1042400000800B40FCA5002000000B40693F0010DF
:1042500070B51F4D2C692CB1BDE870400A211D4876
:10426000FFF712BE1C4E0321304600F001FAEE604B
:10427000FFF7BEFA0321194B4FF0504618444FF692
:10428000FF7223460F24297015492861A960306800
:104290006969AA806C80687021F813200C330132A0
:1042A000C02B92B2F8D108240B4B0E4A0320D560E4
:1042B0000D491C62FFF71EFB01210320FFF7D8FA0E
:1042C0000A4B0A211C640348BDE87040FFF7DCBDBF
:1042D000302300202877022000000B40049D00209E
:1042E000FFFF1000FCA50020693F001000200B40DC
:1042F00000487047302300200146F0B50069EFF315
:10430000108772B6D0E8CF5F0124002DFAD1C0E843
:10431000454F002DF6D1BFF35F8FB1F902E04C6934
:104320000EEB4E0CBEF1000F4FEACC05086904EB12
:10433000CC0C3CDB665B4E800026C0E88F6F87F3B9
:104340001088BCF80200CCE902230130C0F30E0053
:10435000012838BF0120059BACF80200CCF81030D2
:10436000069B40EA0E40CCF814300B69EFF3108244
:1043700072B6D3E8CFCF0127BCF1000FF9D1C3E863
:104380004C7FBCF1000FF4D1BFF35F8F8B88635378
:10439000A1F804E00B69C3E88F6F82F31088012253
:1043A000CB68097803F501538A405A60F0BD0023B9
:1043B000C0E88F3F87F310884FF0FF30F0BD00BF9B
:1043C0002DE9F0479DF828900546DDE908679046FD
:1043D0001C46B9F1000F06D100F064F9804564EB8A
:1043E0000101002908DB424623462846CDE908673B
:1043F000BDE8F047FFF780BF4846BDE8F08700BF43
:1044000003464089B0EB214F37DD58690A1402EBAF
:10441000420210B500EBC2001C69EFF3108C72B6BB
:10442000D4E8CFEF0122BEF1000FF9D1C4E84E2F3E
:10443000BEF1000FF4D1BFF35F8F428889B292B210
:104440008A4207D000221B69C3E88F2F8CF31088A3
:10445000002010BD42F40042428001210022186970
:104460009971C0E88F2F8CF310881C78DA680846A1
:1044700002F50153A140596010BD0020704700BFF4
:10448000407870472DE9F041851F41F1FF37A84280
:1044900071EB070338BF002582B038BF2F460446B2
:1044A0000E4600F0FFF8281A67EB010C01287CF19A
:1044B000000C06DA2046314602B0BDE8F04100F0BB
:1044C0002DB900F0EFF8854267EB010100290ADB06
:1044D0000021174B2A46009316483B460191FFF7EF
:1044E0000BFF0130E6D04FF0000C134A1349536A1A
:1044F0009F4204D8906AA842DCD29F42DAD10B686E
:10450000EFF3108072B6D3E8CF8F5FF0010EB8F1F1
:10451000000FF8D1C3E848EFB8F1000FF3D1BFF3B3
:104520005F8F0B68C3E88FCF80F3108820BFDEE772
:104530002D3F00103023002000000B402877022080
:1045400038B504460D4600F0ADF84FF0FF326FF07D
:104550000043201845EB0101824273EB010438BF90
:104560001946BDE8384038BF1046FFF78BBF00BF83
:1045700010B5044600F096F84FF47A734FF0FF3C04
:104580006FF00042E4FB0301BDE81040844572EB8C
:1045900001033CBF60461146FFF774BF2DE9F043AD
:1045A00006460D4683B0EFF30584E4B23CB12D4BD3
:1045B0005A6AAA421CD2002003B0BDE8F0832A4FF9
:1045C000D7F80C9097F80080484600F063F808F19F
:1045D000040859F828301B1A301A65EB010198427B
:1045E00071F1000110DB20BF1E4B5A6AAA42E2D3D0
:1045F00014BF012400249B6AB34234BF204644F018
:10460000010003B0BDE8F08300F04CF8864265EB92
:104610000101002914DB154B3846CDE90034324640
:104620002B46FFF769FE011E0ADD0E4B5A6AAA42AD
:1046300016D39B6AB34211D30B48FFF7E1FEB6E7EE
:10464000084B5C6AAC42B6D3641B18BF01249B6A5A
:10465000B34234BF204644F00100ADE7AA42EBD19B
:1046600020BFE9E700000B40302300202D3F001061
:1046700010B4054B054C064AA04214BF1846581CFE
:104680005DF8044BFFF748B830A1002000800B40D4
:10469000E0BC01100346416A0A46986A596A8A4298
:1046A000FAD17047034B596A0A46986A596A91428F
:1046B000FAD1704700000B4010B4174A536A9C4669
:1046C000946A536A6345FAD1001959414FF00002C8
:1046D00028BF01220346CAB10F4B596A4B1C08BFC1
:1046E0000B4608D04FF0FF310B460B48426A8A4216
:1046F000FCD38A4207D1084A02E0506A884202D1BC
:10470000906A9842F9D35DF8044B7047024A526AA6
:104710009142EAD8EDE700BF00000B40074A536A18
:104720009942FCD8994207D1044B02E05A6A91425F
:1047300002D19A6A9042F9D8704700BF00000B403E
:1047400000EB400C4FEA8C0C0CF1804C2DE9F04151
:104750000CF5803C069D9046DCF80420041FAA421C
:10476000E4B238BFCCF80450012C2AD94FF4006EC3
:10477000254E0CF54052C2F800E056F82020AAB9A8
:10478000DCF800200CF5805782EA481202F0E002C3
:10479000012C3A6029D94FF4006246F820300CF51C
:1047A00000531A60CCF80450BDE8F0817769B7FB7C
:1047B000F2FE0EF1010E0EEB4E0EBEF1030EFCD218
:1047C000DEE70129D2D103240CF540521460DCF855
:1047D0000820D207FBD5DCF800200CF5805782EAD0
:1047E000481202F0E002084E3A600122DCF8004074
:1047F0004C4004F003043C6002FA01F1DCF80820AC
:104800000A42FBD0C7E700BF38A1002010B54FF423
:10481000803482B00094FFF793FF02B010BD00BF58
:10482000014B53F82000704738A10020F0B54FF439
:104830008036174601220D46044683B011460520F6
:10484000124B0096FFF77CFF2B4607FB05F522462F
:1048500001210F48009700F05DF8B4FBF5F4002249
:10486000022104200B4B0096FFF76AFF234600222B
:10487000012105200096FFF763FF02220021062098
:10488000024B0096FFF75CFF03B0F0BD006CDC024A
:1048900000000540001BB7002DE9F0474FF4A0765B
:1048A0008A4691469846184D184FBD4208D9013E98
:1048B000A5F53B550F2EA5F12005F6D100201EE0F1
:1048C000072205F5372101F5D871134602FB02FCDA
:1048D00003E0013BACEB020C13D0B1FBFCFE8645C0
:1048E000F7D10CFB1014002CF3D10120084901FB77
:1048F00006F6CAF80060C9F80020C8F80030BDE824
:10490000F087013AE1D1D2E750262F0050F80C0091
:10491000001BB70070B4039D04682D0345EA0345EE
:104920001B4B002CB3FBF1F3B2FBF3F61FDB194A70
:10493000194B904214BF4FF480424FF40042174C81
:104940001A6003F580531A60A36832EA0303FBD1AF
:10495000212200F540530433016086601A6002682A
:10496000002AFCDA0822C5601A6070BC7047036830
:1049700003F03F038B42DAD18368C3F30B03B342E6
:10498000D5D1C36803F4EE23AB42D0D1EDE700BF2D
:10499000001BB700008005400020024000000240DC
:1049A00030B44FF080441C4B1C60E0B11B4CA3F5AD
:1049B0004053DC611A4C40F0010044401C625962D3
:1049C00098624FF080454FF0E061134B1548164C4C
:1049D0001D60846019604AB930BC4FF00042A3F5F5
:1049E00080531A607047114BD861EAE74FF47A732D
:1049F00003FB02F2B2F1807F2ABF6FF07F431346C0
:104A00001A464FF080410A4C08482360094B426027
:104A100030BC1960704700BF00B00D40D3C007B074
:104A20002D3FF84F00A00140F3FFFF0100800D4033
:104A3000C8A5002000A00D40012300EB400080002D
:104A400000F1804000F5841041600360704700BFB2
:104A5000002370B5DB8A04460D46002242E800F2CE
:104A6000520254BF1021042144F252209847864636
:104A70002B462246F446BDE870400A214FF481706F
:104A8000604700BF0023DB8A002242E800F25202A6
:104A900001D4102118470421184700BF08B5034668
:104AA0000846191E02DB1AB140F03000FFF7D0FFB4
:104AB00040F02000FAE700BF034AD2F82838002B64
:104AC000FBD0BFF35F8F704700000E400021044B06
:104AD000044ABFF35F8F43F8041B9342F9D1704738
:104AE0000C080E402C080E4010B44FF48D704FF49B
:104AF0002A64064A064B07491460D060196053685F
:104B0000002BFCDA5DF8044B704700BF00800440C6
:104B100000A0044000B0FA00704700BF08B501488B
:104B2000FEF7C6FD04BD011038B5054C054DAC427D
:104B300004D254F8043B9847AC42FAD338BD00BFC6
:104B400090B20110D0B2011038B5054C054DAC4201
:104B500004D254F8043B9847AC42FAD338BD00BFA6
:104B6000BCB20110D0B2011010B40748074C084B7A
:104B7000084A094904601A608B6832EA0303FBD1D2
:104B80005DF8044B704700BF002002407F3BEFEF11
:104B900000300240F6FFF30300000240044BDB6CE0
:104BA000B3F5004F03D14FF48022024BDA64704713
:104BB00000001150002011504FF0E022044BD2F8B9
:104BC000881D0B43C2F8883D10EE3004704700BFCB
:104BD000030330006FF06041044B054A196093688D
:104BE000DB4333F06043FAD1704700BF003002402E
:104BF0000000024010B545F25320FFF743FFBDE827
:104C0000104003460420184710B545F25320FFF723
:104C100039FFBDE81040034601201847FEF70CBEDF
:104C200070B50D490D4D0E4E6D1AAC10442C224638
:104C300028BF44223046920011F0BCFAB5F5867FB9
:104C400007D82B1F074A33440134442C43F8042F60
:104C5000FAD1054B9E6070BD0000001010010010DD
:104C6000000000201101001000ED00E0002370B5ED
:104C70002B4C82B0C4F88430FFF736FF0122294B59
:104C8000DA63636C012BFCD10321264A244B1163A8
:104C90009C6B012CFCD10226052521460523224AC6
:104CA00022480096FFF736FE21462B46204A21482F
:104CB0000095FFF72FFE0022042031461E4BFFF720
:104CC000A5FD2146284600221C4BFFF79FFD002230
:104CD000082011461A4BFFF799FD002209201146C2
:104CE000174BFFF793FD002206201146134BFFF7E9
:104CF0008DFD0022114B07201146FFF787FD042090
:104D0000FFF78EFD00240F4BA3FB0035AD0CE0B286
:104D100029460134FFF790FE062CF8D102B070BD91
:104D20000000014000300140002F6859000005409C
:104D3000008C864700800540001BB70080D1F0083A
:104D4000006CDC0283DE1B4386B003B451FC080414
:104D5000CDE9020151FC0904CDE9040151EC0A043A
:104D6000CDE9060103BCF047BDE800504EEC00C49D
:104D7000BDE800504EEC01C4BDE800504EEC02C44A
:104D800000BD000000B5FFF7DFFF02E010FE30F4C9
:104D9000F8D441EC100443EC112400EE010410EEB1
:104DA000010480EE200451EC1004704700B5FFF7B9
:104DB000CBFF02E010FE30F4F8D441EC100443ECD9
:104DC000112400EE010410EE210480EE200451ECC9
:104DD0003004704700B5FFF7B7FF02E010FE30F473
:104DE000F8D410B541EC100443EC112451EC040448
:104DF00053EC0524A0FB024C5FF0000EE0FB03CE59
:104E0000E1FB02CE4CEC20440024E1FB03E444EC43
:104E100030E480EE200451EC5004BDE810407047AF
:104E200000B5FFF791FF02E010FE30F4F8D441EC3A
:104E3000100443EC112451EC2104A0FB01126FEA91
:104E4000820252FB100052FB12F252FB1000A0EB48
:104E5000D07C53EC04245CFB13F153EC1524A1FB30
:104E6000022001FB030053EC4424A2EB000050FBA2
:104E70001CF24FEA111312EB017043EBE27140EAAE
:104E8000515020EA915020F0070053EC7524A0FB0C
:104E9000023C53EC752400FB03CC01FB02CC53EC29
:104EA0000424ACEB824C40EA5C70A0F1010041ECC0
:104EB000400480EE200451EC7004704700B5FFF709
:104EC00043FF02E010FE30F4F8D440EC700400EE32
:104ED000010410EE210480EE200451EC30047047F0
:104EE00000B5FFF731FF02E010FE30F4F8D440ECDB
:104EF000600400EE010410EE210480EE200451EC69
:104F00003004704700B5FFF71FFF02E010FE30F4D9
:104F1000F8D441EC800400EE010410EE010480EEB0
:104F2000400410EE1304704700B5FFF70DFF02E0D8
:104F300010FE30F4F8D441EC800400EE010410EED1
:104F4000010480EE400410EE3304704700B5FFF713
:104F5000FBFE02E010FE30F4F8D441EC100443EC08
:104F6000112400EE010410EE3004C0F3007070470D
:104F700000B5FFF7E9FE02E010FE30F4F8D441EC92
:104F8000100443EC112400EE010410EE3004C0F3D1
:104F90008070704700B5FFF7D7FE02E010FE30F4D6
:104FA000F8D443EC102441EC110400EE010410EE9F
:104FB00030F48CBF01200020704700BF00B5FFF720
:104FC000C3FE02E010FE30F4F8D443EC102441ECB0
:104FD000110400EE010410EE30F42CBF012000207B
:104FE000704700BF00B5FFF7AFFE02E010FE30F4DF
:104FF000F8D441EC100443EC112400EE010410EE4F
:1050000030F42CBF01200020704700BF00B5FFF72F
:105010009BFE02E010FE30F4F8D441EC100443ECA7
:10502000112400EE010410EE30F48CBF01200020AA
:10503000704700BF0022002980F2A980404261EB46
:105040004101B1B3B1FA81F3083B16D4994010FA8B
:1050500003FCC3F1200320FA03F040EA0100A2EBB5
:105060000302C2F195021CEB0C0C40EBC25040F065
:10507000004020D0FE2A16D2704703F1210311FA16
:1050800003FC5CEA000CC3F1210321FA03F0A3EB5B
:10509000020202F1B50240EBC25040F000400AD0DB
:1050A000FE2A38BF70474FF00040A8BFCFF680708F
:1050B000704711460AE028BF20F00100FE2A38BFE1
:1050C0007047F0E7002880F233804042B0FA80F366
:1050D000083B0CD4984001EB0302C2F1950200EBAF
:1050E000C25040F00040FE2A38BF704713E003F181
:1050F000210310FA03FCC3F1210320FA03F0A3EB10
:10510000010202F1950240EBC25040F0004008D08D
:10511000FE2A38BF70474FF00040A8BF40F0FF4064
:10512000704728BF20F00100FE2A38BF7047F2E721
:1051300020B3B0FA80F3083B0AD4984001EB030295
:10514000C2F1950200EBC250FE2A38BF704711E051
:1051500003F1210310FA03FCC3F1210320FA03F049
:10516000A3EB010202F1950240EBC25007D0FE2AE8
:1051700038BF7047ACBF4FF0FF400020704728BFDA
:1051800020F00100FE2A38BF7047F3E7002289B300
:10519000B1FA81F3083B14D4994010FA03FCC3F12F
:1051A000200320FA03F040EA0100A2EB0302C2F15F
:1051B00095021CEB0C0C40EBC2501ED0FE2A14D200
:1051C000704703F1210311FA03FC5CEA000CC3F100
:1051D000210321FA03F0A3EB020202F1B50240EB36
:1051E000C2500AD0FE2A38BF7047ACBF4FF0FF4014
:1051F000002070471146FFF79BBF28BF20F0010039
:10520000FE2A38BF7047F0E700219539C215A2F198
:105210000103A0EBC350DBB2FE2B22D2C9182ED45F
:10522000B1F1200314DAB1F108030CDD0002D3F16F
:10523000200130FA01F19840002AA8BF704740428F
:1052400071EB410170478840D1174840401A7047C0
:10525000082B0ADA984080EAE27101EBD271002053
:10526000704709D8410218BF00226FF0004101EBDE
:10527000D2716FEAE2707047002000217047494206
:1052800081F30501C84090EAE27010EBD270C117BB
:105290007047000038B50446094815F0D1FF204694
:1052A0000FF0C8FB0546064815F0BEFF2DB1054BB3
:1052B0002C449C4201D8284638BD0348FEF7F8F933
:1052C0002C2C00200000082010BD011038B5054628
:1052D0000C460A4815F0B4FF284621460FF0FEFEA2
:1052E0000546064815F0A0FF2DB1054B2C449C4205
:1052F00001D8284638BD0348FEF7DAF92C2C0020E7
:105300000000082010BD011010B50446054815F036
:1053100097FF20460FF096FBBDE81040014815F0BE
:1053200083BF00BF2C2C0020FFF7B4BFFFF7ECBFFA
:10533000FFF7EABF9A4238BF88547047704700BFF2
:105340002DE9F04F83B09946DDE90DAB0F9B884600
:1053500011469A07074616D1DA453AD20C460D4651
:10536000ABEB0A060E4422464B4641462020013450
:10537000B847B442F7D12946BAF1000F08D1204608
:1053800003B0BDE8F08F0C46BAF1000F10D00E4606
:1053900055460C9B2E449A440191721B4B46013D8D
:1053A00041461AF8010D3446B847002DF5D1019950
:1053B0000F9B9B07E3D5651AAB45E0D922464B46C8
:1053C000414620200135B8475D4504F10104F5D37D
:1053D000D5E70C46BAF1000FD9D1D0E72DE9F04F4F
:1053E0000F9FDDF8248017F0020F0A9C9DF82CA077
:1053F0000E9DDDE90C9644D1F5BBB44241D207F0D5
:10540000010B04F1FF3C4FF0300EC44404E00134C2
:10541000A6420CF801EF01D9202CF8D1BBF1000F06
:1054200000F08880A5422CD904F1FF3C4FF0300EEB
:10543000C44404E00134AC420CF801EF21D0202C2C
:10544000F8D117F0100F0ED017F4806F54D1A64288
:1054500063D0A54261D0B9F1100F50D0B9F1020F5D
:1054600056D0202C29D12024CDE90B57CDE9098431
:10547000BDE8F04FFFF764BF17F0010B34D1B44221
:10548000BFD317F0100F1ED017F4806FE3D1002C9C
:10549000DDD1B9F1100F63D0B9F1020F77D030240C
:1054A00088F800400124BAF1000F11D17E0748D5D9
:1054B0002B2608F804600134D6E7264601344FF065
:1054C000300C08F806C0202CCDD0BAF1000FEDD07A
:1054D0002D2608F804600134CDE90B57CDE9098485
:1054E000BDE8F04FFFF72CBFBAF1000F30D0B44247
:1054F00005F1FF3585D395E7B9F1100FB3D1BE069D
:105500003BD5202CAFD0582608F804600134A8E71A
:10551000202CA8D02646013407E0661EB9D0B9F188
:10552000100F36D0B9F1020FC9D14FF0620C08F854
:1055300006C096E717F0100FC5D017F4806F86D01D
:1055400089E73E0790D5202608F8046001348BE7F0
:1055500017F00C0F00D0013DB442FFF452AF61E7E9
:10556000BC0612D4782488F80040302488F8014022
:105570000224BAF1000F99D0AAE7202C3FF473AFB0
:10558000782608F8046001346BE75824EBE76224BE
:10559000E9E717F0200FA4F1020C04D04FF0580EE9
:1055A00008F80CE08BE74FF0780E08F80CE086E77F
:1055B0002DE9F04F93B01C9C9DF874B01E9DDDF852
:1055C00084E02CB92EF010061EF4806FB64635D15B
:1055D0001EF0200F14BF4FF041094FF061090AAFD0
:1055E000B8460026A9F10A09099002E0202E15D03C
:1055F0005446B4FBF5FA05FB1A4C5FFA8CF0BCF18B
:10560000090F00F1300C8ABF48445FFA8CF0C0B239
:10561000AC4208F8010B06F10106E7D20998209C7C
:10562000CDE9016B05941F9CCDF818E0CDE903543A
:105630000097FFF7D3FE13B0BDE8F08F26460AAF00
:10564000EDE700BF2DE9F04F97B08E46DDE920640D
:10565000DDE9247856EA04019DF888C006D128992E
:10566000289D21F010012891690545D428990DF154
:10567000380B11F0200F14BF4FF0410A4FF0610AB0
:10568000D9460025CDE9090ECDE90B23AAF10A0A76
:10569000CDF834C003E0202D17D006460C46214635
:1056A0003A464346304615F0BBFDD2B2092A02F114
:1056B00030038ABF5244DAB2D2B2BE4274EB08045D
:1056C00009F8012B05F10105E5D2DDF834C0DDE96B
:1056D000090EDDE90B232899CDE9015C0691279994
:1056E000CDF800B005912699CDE903717146FFF719
:1056F00075FE17B0BDE8F08F00250DF1380BEAE715
:105700002DE9F04F95B0209CDDE91EAB0894219C5B
:105710000D461E4609900B925B465246504659462E
:10572000229F0A94FFF716FC002840F0978050460D
:1057300059464FF0FF32664BFFF76CFC002840F0F3
:105740008D80504659464FF0FF326FF48013FFF7BB
:1057500025FC002840F08280504659460022002354
:10576000FFF71CFC002840F08881CDE906ABDDE99D
:10577000063407F40062994617F48063A04612923B
:1057800013937BD159EA040340F0A480002A40F02F
:105790008E810623089317F002020E9240F08A8150
:1057A0000A9B0421042B38BF0423043B10910C9264
:1057B00012935046594600220023FFF7EFFB0028C2
:1057C00040F0C9819DED067B129B0B9A0393089BC9
:1057D0008DED007B029327F4006304932946334642
:1057E000099800F021FA024617F0200F0CBF65203F
:1057F000452033462946099C571CA047052305939D
:10580000109B0020013B04930A230C99CDE9023040
:1058100081EAE173A3EBE173C90FCDE900313A46A8
:10582000334629462046FFF7C3FE0E9B07468BB141
:105830000B9BA0EB03080A9B43450BD999463A46BC
:1058400033462946202008F10108A047C14507F149
:105850000107F4D8384615B0BDE8F08F0A9B2946F9
:10586000DDE9084021933346CDE91EAB0B9A229720
:10587000209415B0BDE8F04F00F0D6B959EA040302
:105880002AD1129B002B86D000230C93089B0C9AE4
:10589000934200F3BA814FF0000850465946002267
:1058A0000023FFF77BFB002840F0ED809DED067B99
:1058B0000A9B8DED1E7BCDE9208327F4006343F422
:1058C00080632293294633460B9A0998D1E700BF9B
:1058D000FFFFEF7F06230893C8F30A50A0F2FF30C2
:1058E000FFF7F0FAC0A3D3E90023FFF777FAC0A3CC
:1058F000D3E90023FFF74AFAC8F31303CDE90C01FB
:1059000043F07F5148460022B14B41F44011FFF76C
:1059100051FAA3A3D3E90023FFF760FA02460B462E
:10592000DDE90C01FFF732FAFFF7F0FA0C90FFF710
:10593000C9FA9DA3D3E9002380468946FFF74EFAB2
:105940000022A44BFFF722FAFFF7E0FA034649468C
:105950001C4697A3D3E900234046FFF73FFA804651
:1059600020468946FFF7AEFA93A3D3E90023FFF759
:1059700035FA02460B4640464946FFF71BFA0246F7
:105980000B4680468946FFF729FA42464B46CDE949
:105990000E0140464946FFF7F9F90022CDE9100112
:1059A000DDE90E018C4BFFF73FFA00228B4BFFF72E
:1059B000EDF902460B46DDE90E01FFF735FA00224C
:1059C000874BFFF7E3F902460B46DDE90E01FFF7CF
:1059D0002BFA42464B468046894600204FF08041D4
:1059E000FFF7E8F902460B4640464946FFF7CEF975
:1059F00002460B46DDE91001FFF716FA0022794B4B
:105A0000FFF7C4F904F2FF3C00224FEA0C53FFF702
:105A1000E5F9DDE9062380468946FFF7FBFA50B138
:105A20000C9B4046013B49460C9300226B4BFFF711
:105A3000FBF9804689460C9B129A6333C62B07F00C
:105A400002030E930CD8002A67D10A9A042A7FD940
:105A5000002B00F0D4800423109302230E936AE0FD
:105A6000002A2FD10A9A052A04D9002B00F0D280EF
:105A700002230E930523109361E00BF10043CDF850
:105A800018A0079373E60A9B2946CDE9208327F4E3
:105A9000006343F4806322933346DDE906673446AE
:105AA00007F10045CDE91E450B9A0998E1E64FF054
:105AB0000508F2E6042200231092022212930E92AD
:105AC0000C9376E60523109358EA09033FF4DEAE03
:105AD000DDE906013AA3D3E90023FFF787FA48B1CD
